:100000000A128A11FC2F00308A000408840A820731
:100010000034553441345234543420344D346F3428
:10002000643475346C346534203449346E34693446
:100030007434693461346C3469347A3465346434CA
:10004000203461346E346434203461346334743465
:1000500069347634653400345234453444342034C1
:100060004C344534443420342D343E3420344F3421
:100070004E34003452344534443420342D343E342C
:0A00800020344F3446344634003477
:100EAC00F000831203130C1E5C2F5D2F572F70085C
:100EBC009900080083120313981C652F662F682F66
:100ECC00181218168C1E6B2F6C2F682F1A0808001E
:100EDC0083160313071387178130990018151812FE
:100EEC008312031398178316031398168312031394
:100EFC001816831603131813831203131813080000
:100F0C00F200982F720884000A128A1103200A1228
:100F1C008A110A128A1156270A128A110130F1001D
:100F2C007108F207720884000A128A1103200A124F
:100F3C008A11003A031DA32FA42F882F08008316B3
:100F4C00031386110615831203130611061DAF2F0A
:100F5C00B02FB22F8611F92F0619B52FB62FF92FF6
:100F6C000A128A116E270A128A1101300A128A118A
:100F7C0086270A128A110A128A1160270A128A110C
:100F8C00F300F4017308F5007408F60031307506AF
:100F9C007604031DD22FD32FE22F83120313861551
:100FAC0024300A128A1186270A128A110A300A1270
:100FBC008A1156270A128A11303075067604031DE1
:100FCC00E82FE92FC12F83120313861132300A1236
:100FDC008A1186270A128A110A300A128A11562798
:100FEC000A128A11C12F0A128A11002883010A12CF
:040FFC008A11A52F82
:02400E007A3FF7
:00000001FF
